:020000040800F2
:1000000010040020D90000087708000875080008CF
:1000100000000000000000000000000000000000E0
:100020000000000000000000000000007B08000845
:100030000000000000000000790800087D080008AA
:10004000EB000008EB000008EB000008EB000008E4
:10005000EB000008EB000008EB000008EB000008D4
:10006000EB000008EB000008EB000008EB000008C4
:10007000EB000008EB000008EB000008EB000008B4
:10008000EB000008EB000008EB000008EB000008A4
:10009000EB000008EB000008EB000008EB00000894
:1000A000EB000008EB000008EB000008EB00000884
:1000B000EB000008EB000008EB000008EB00000874
:1000C0000448854600F090F8004800476D09000894
:1000D000C046C0461004002004488047044800473A
:1000E000FEE7FEE7FEE7FEE7FEE7FEE7D5080008CD
:1000F000C100000830B50B46014600202022012433
:1001000009E00D46D5409D4205D31D469540491B4B
:100110002546954040191546521E002DF1DC30BD94
:10012000F0B51FB40646002082B005464024019178
:1001300000901BE0019922460F46304600F020F85F
:10014000049A059B801A994110D3104619462246FD
:1001500000F039F8361A8F4101972246012000211C
:10016000009F00F030F838184D4100902046641E82
:100170000028DFDC019B00982946324607B0F0BD1D
:1001800010B5202A04DB0846203AD040002110BDDB
:100190000B46D340D0402024A21A91400843194670
:1001A00010BDD2B201E00270401C491EFBD2704764
:1001B0000022F6E710B513460A4604461946FFF733
:1001C000F0FF204610BD10B5202A04DB0146203A7E
:1001D0009140002010BD914020239C1A0346E3402B
:1001E0001943904010BD0000064C0125064E05E065
:1001F000E36807CC2B430C3C98471034B442F7D348
:10020000FFF762FF580A0008780A00080148806872
:1002100070470000000000200248816802788918B9
:10022000816070470000002010B506480168102268
:1002300011430160032000F007F800F027F80020C8
:1002400010BD00000020024070B504460D4D7D2019
:100250002978C000FFF74EFF01460B480068FFF702
:1002600049FF00F0EFFA002809D1042C07D2002240
:100270002146401E00F01EF800206C6070BD012079
:1002800070BD0000000000200C00002008B50848E8
:100290008169012211438161816911400091C26924
:1002A00001040A43C261C0690840009008BD000013
:1002B0000010024010B500F027FB10BDF8B50F4646
:1002C00006005ED03C4D2868C007C00FB84209D276
:1002D000286840084000384328602868C007C00FDD
:1002E000B8424ED13068354C81070CD5400704D553
:1002F000606807210902084360606068F021884354
:10030000B168084360603078C0072BD0706801285E
:1003100010D0022810D0032811D0216889070029A5
:100320002FDA61688908890001436160FFF76EFF79
:10033000009010E0216803E021688901EFE7616B1C
:100340008903ECE7FFF762FF0099411A1C488142DC
:1003500001D90320F8BD60680C210840716889004C
:100360008842EFD12868C007C00FB8420BD928686F
:1003700040084000384328602868C007C00FB842D2
:1003800001D00120F8BD3078400706D5606807210C
:1003900009028843F1680843606000F01DF8616855
:1003A000084A0906090F515CC84007490860032044
:1003B000FFF74AFF0020F8BD002002400010024075
:1003C00088130000480A00080C000020014800685B
:1003D000704700000C00002070B5154A51680C20D1
:1003E0000B4603401348042B05D0134D082B03D0B4
:1003F0000C2B00D1284670BD8B02104C1B0FE45C07
:10040000D26A0E4B1207120F1033C9039A5C890F80
:10041000022901D0032901D0002301E0002328464E
:100420000021FFF77DFE214600F055FA70BD000067
:100430000010024000127A00006CDC02280A00085A
:10044000FEB5040070D02078F94EFA4DC00748D0B0
:1004500068680007800F01281FD068680007800FB8
:10046000022804D16868C003800F022815D0616893
:10047000012919D001208004002901D0052917D0B5
:100480002968B14329602968814329606068002890
:100490001BD0FFF7BBFE074613E02868800320D57A
:1004A00060680028CED01CE0286830432860EDE763
:1004B000296801432960F7E7FFF7A8FEC01B6428FD
:1004C00070D828688003F7D50BE0FFF79FFE07463A
:1004D00004E0FFF79BFEC01B6428F1D82868800366
:1004E000F7D4207880073FD568680007800F14D0C4
:1004F00068680007800F022804D16868C003800F75
:1005000001280AD0E068002828681ED0012108438D
:100510002860FFF77BFE07460CE0286880070CD5B3
:10052000E068012800D108E080E1FFF76FFEC01B02
:100530000228C5D828688007F7D52868F82188439D
:100540002169C900084328600EE040084000286087
:10055000FFF75CFE074604E0FFF758FEC01B0228C9
:10056000AED828688007F7D42078000723D5E06943
:100570000028686A0FD0012108436862FFF746FE31
:10058000074604E0FFF742FEC01B022898D8686ABD
:100590008007F7D50FE0400840006862FFF736FE9D
:1005A000074605E0C3E0FFF731FEC01B022887D8ED
:1005B000686A8007F7D4207804274007002861DAAA
:1005C00000200190E869C00008D4E969B806014339
:1005D000E961E969014001200091019096480168B4
:1005E000C90511D40168821511430160FFF70EFEA1
:1005F000009005E0FFF70AFE0099401A642898D899
:100600008D480068C005F5D5A06801280AD00028EB
:1006100001D0052811D0286A400840002862286AC5
:10062000B84302E0286A012108432862A068002834
:1006300012D0FFF7EBFD00900AE0286A38432862E9
:10064000F0E7FFF7E3FD0099411A7C4881426ED83C
:10065000286A8007F5D50DE0FFF7D8FD009006E089
:10066000FFF7D4FD0099411A744881425FD8286A87
:100670008007F5D40198002804D0E969012000071B
:100680008143E9612078C00635D5606901280CD026
:10069000401D686B24D038436863686B4008400095
:1006A0006863FFF7B3FD074622E0686B3843686371
:1006B000686B012108436863FFF7A8FD074604E063
:1006C000FFF7A4FDC01B022831D8686B8007F7D55F
:1006D000686BF8218843A169C900084368630AE090
:1006E000B8436863F4E7FFF791FDC01B02281ED8EA
:1006F000686B8007F7D42078800637D568680007D4
:10070000800F032814D068680007800F022804D1E6
:100710006868C003800F03280AD0206A0028686B2D
:1007200016D030436863FFF771FD06460CE062E0C7
:10073000686B80031AD5206A012877D116E0FFF78D
:1007400065FD801B022856D8686B8003F7D50DE045
:10075000B0436863FFF75AFD064604E0FFF756FD15
:10076000801B022847D8686B8003F7D4606A002892
:1007700066D069680907890F022942D0012636062A
:100780000228286805D0B0432860FFF73FFD0446E3
:1007900033E0B0432860FFF739FD074604E0FFF778
:1007A00035FDC01B022826D828688001F7D4E86AE6
:1007B000216B000900010843E862A16AE06A08436E
:1007C00069687B22D20391430843686028683043FC
:1007D0002860FFF71BFD044604E0FFF717FD001B30
:1007E000022808D828688001F7D529E0FFF70EFD18
:1007F000001B022801D90320FEBD28688001F5D422
:100800001EE00128F8D06868E96A0322D203A36ACF
:1008100002409A420AD10907226B090F914205D181
:100820000F2189040840E16A884209D00120FEBDF9
:10083000000001000010024000700040881300001A
:100840000020F4E7094910B5401E884201D9012073
:1008500010BD074C60610321081F00F055F800200F
:10086000A06107202061002010BD0000FFFFFF00F5
:1008700000E000E0FEE7FEE77047704710B5FFF7C5
:10088000CBFC10BD10B592B034216846FFF790FC48
:1008900000240F94022000900D9401200E940390E8
:1008A00010200994049010946846FFF7C9FD0028B1
:1008B00001D072B6FEE707200D900E940F94002130
:1008C00010940DA8FFF7FAFC002801D072B6FEE7DD
:1008D00012B010BD7047F8B5040C8BB2264682B238
:1008E0005E430D0C1046370C584336048019002126
:1008F000794116466E43370C3604801979412646F5
:100900006E438919F8BD00008307FF22DB0E9A4071
:100910008907090E9940002808DB830809489B00D5
:100920001B18186890430843186070470007000FB1
:100930000838830804489B001B18D8699043084373
:10094000D861704700E400E000ED00E002E008C874
:10095000121F08C1002AFAD170477047002001E039
:1009600001C1121F002AFBD170470000FFF75CFC99
:10097000FFF788FF00F038F8184C20680121490281
:10098000084320602068890008432060206A4901EC
:1009900008432062206A0901084320621048C169A7
:1009A000E2011143C161FFF711FDE1214902FFF7A7
:1009B000A1FB0C49C86008680C2210430860086855
:1009C000012210430860074840222030CB699B0673
:1009D000FCD56369534063618388F7E700080048EA
:1009E00000100240004800400D4841690122D20435
:1009F000114341610B480168D21111430160426803
:100A000040218A4342608368032212039343836038
:100A1000C3689343C36042690A4342617047000060
:100A200000100240000800480203040506070809F8
:100A30000A0B0C0D0E0F1010010203040506070827
:100A4000090A0B0C0D0E0F10000000000000000042
:100A50000102030406070809780A000800000020C4
:100A6000100000004C090008880A0008100000204F
:100A7000000400005C090008010000000400000000
:080A80000000000000127A00E2
:04000005080000C12E
:00000001FF
